:1000000000100020D10100008101000071050000F6
:1000100081010000810100008101000081010000D8
:1000200081010000810100001835000081010000FD
:1000300081010000603500008101000081010000A5
:1000400081010000810100008101000081010000A8
:100050008101000081010000810100008101000098
:100060008101000081010000810100008101000088
:100070008101000081010000810100008101000078
:100080008101000081010000810100008101000068
:100090008101000081010000810100008101000058
:1000A0008101000081010000810100008101000048
:1000B0008101000081010000810100008101000038
:1000C0008101000081010000810100008101000028
:1000D0008101000081010000810100008101000018
:1000E0008101000081010000810100008101000008
:1000F00081010000810100008101000081010000F8
:1001000081010000810100008101000081010000E7
:1001100081010000810100008101000081010000D7
:1001200081010000810100008101000081010000C7
:1001300081010000810100008101000081010000B7
:1001400010B5054C237833B9044B13B1044800E0D3
:1001500000BF0123237010BD10100020000000001C
:100160001838000008B5034B1BB10349034800E0F1
:1001700000BF08BD00000000141000201838000067
:10018000FEE70000064B0748DA1C121AC11E22F0D7
:100190000302994288BF0022034903F091B900BFCE
:1001A000101000200810002024380000064B0748DB
:1001B000DA1C121AC11E22F00302994288BF0022E3
:1001C000002103F08AB900BF301000201010002079
:1001D00008B5084B83F30A88074B084AC3E9002295
:1001E00000F00EF800F02CFAFFF7CCFFFFF7DEFF6F
:1001F00000F0C2F90000002000100020A5EDF5FE7F
:10020000044B054A9A60D3F8882042F47002C3F880
:100210008820704700ED00E000000000C0F30C03F0
:100220002DE9F04105460F4616460BB900F03CFBA0
:1002300005F5005424F4FF5424F01F0405EB0608D0
:10024000A04507D8324639462846BDE8F04102238A
:1002500000F038BB204600F027FB04F50054EFE720
:1002600070B40025AD6A03462E69864206D86C69D3
:1002700013449C4202D370BCFFF7D0BF70BC7047E0
:100280001FB510F5C04F00F5C043144603931AD2B2
:10029000039BB3F5FC2F16D2039BC3F5FC239342BB
:1002A00011D348B9836A5A69B2F5C04F04D91869A5
:1002B000019100F0F9FA01992246039804B0BDE8D3
:1002C0001040FFF7ABBF04B010BD0000F0B5421EF8
:1002D000D11C034685B019D86E460D4C04F11007A9
:1002E000354620686168083403C5BC422E46F7D104
:1002F0000DF10F010F3311F8010912F8014F84427B
:1003000004D19A42F7D1012005B0F0BD0020FBE7EF
:1003100004350000036913F0FE0F0CBF012000201C
:10032000704738B504460D46FFF7D0FF48B1636902
:10033000012B09D12046FFF7EDFF08B1A3692B601F
:1003400038BD01202C60FBE70020F9E72DE9F041E2
:100350000368044603F16043B3F5004F4FF000001B
:10036000A0B029D8826A636816699E4224D8B3F582
:10037000002F21D8656B06F14003AB4268D8B5F574
:10038000002F65D82846FFF7A1FF002860D0284637
:10039000FFF7C0FF80B16B6973B1022B0FD1AB695E
:1003A000C4F1040119444FF0FF32204601F070F906
:1003B000284BC31A5842584120B0BDE8F08140F2A2
:1003C000046328460493FFF781FF08B90020F3E790
:1003D0002846FFF79FFF0028F8D00027D7F8348081
:1003E0004046FFF773FF0028F0D0503EB045EDD8EF
:1003F000284605A9FFF795FF0028E7D0BA6A059BB4
:1004000012699A42E2D89C42E0D8B3F5002FDDD8B9
:1004100006A801F00BFA059A2146121B06A801F066
:1004200019FA06A801F018FA059C01F019FA0390D0
:1004300001F01AFA21460090039B04F1200206A85D
:1004400001F07AF904900498B0FA80F04009B3E71B
:100450000120B1E7E320BBDE30B54FF0FF3289B0B9
:1004600005460C4601F014F90D4B984215D140F2A7
:10047000022000F0CAF91C22002101A803F02DF887
:10048000084B29466846009302F052F86846211F3F
:1004900002F04EF8684602F055F8002009B030BD71
:1004A000E320BBDE0100064310B5044688B040F2ED
:1004B000022000F0AAF91C22002101A803F00DF887
:1004C000054B21466846009302F032F8684602F078
:1004D00039F8002008B010BD0000034308B502F051
:1004E000F1F8B0FA80F0400908BD4FF0FF3313B5C2
:1004F000044601A80193FFF7F1FF20B1019BA3423D
:100500002CBF0020012002B010BD4FF4C040704746
:1005100001F037BD01F0BFBE37B50C460546E0B16E
:10052000D9B100230B60114B036001F046FE01308E
:1005300018BF2B6801A81CBF43F440432B604FF049
:10054000FF33019301F03CFE019B43B92B68184334
:100550002860236843F48043236003B030BD012B3F
:1005600002BF236818432060F3E700BF1424004053
:100570004FF4017000F06EB92C4B13B51B68C3F338
:100580000743012B0DD12A4B04205A6E4FF48023D0
:1005900028494B6601F51041086250035CBF264AAA
:1005A00053664FF04023D3F88420110606D44FF44D
:1005B00000621A67D3F88420D206FBD4FFF7A8FFA5
:1005C00000F017F908B900F002F901F005FB044644
:1005D00058B900F00EF908B100F005F940F2012019
:1005E00000F038F94FF4017018E000F002F908B992
:1005F00000F0F3F800F014F9012802D900F0E7F850
:10060000FEE700F017F90D4B0193019B002B0ADC6C
:1006100040F205439C42E5D140F2032000F01AF974
:10062000002002B010BD019B013BEDE70080E00F10
:10063000008000400090004000A0004000350C0009
:1006400013B501244FF040238DF806408DF8074084
:10065000D3F894305B0610D500F010F9A0F2022018
:1006600080B2072809D804FA00F010F0C90F1EBFA5
:1006700000238DF806308DF807304FF4C0435B68D7
:10068000013308D14FF4027000F0BFF800238DF859
:1006900006308DF807309DF8073063B14FF4C04045
:1006A000FFF754FE8DF806009DF806301BB94FF495
:1006B000027000F0AAF89DF806308BB100F099F8AE
:1006C00008B100F090F84FF4C043064A9360184612
:1006D000016881F3088881F3098840688746FEE74E
:1006E00002B010BD00ED00E0B1F5057F10B5044685
:1006F0000FD34FF40572002102F0EFFE04F5CE7225
:1007000004F5AA7104F12C000023BDE8104000F0AC
:1007100055BB40F2052010BD13B5044600910146BB
:100720002C3000F08BFBC4F8100218B141F2070323
:10073000984209D1A3784BB140F2032040F2022342
:10074000E278002A08BF184602B010BD40F201202E
:10075000FAE72DE9F04387B00DF1080904460E468B
:1007600017460021102248461D46DDF8388002F069
:10077000B4FE00211C22C8F80010284602F0ADFE8D
:1007800032463B462146CDF8009004F12C0000F0A3
:1007900055FB23789A0744BF6268C8F80020DB073E
:1007A00009D504F1080304F1240253F8041B934211
:1007B00045F8041BF9D1237840F20640002B18BFFE
:1007C000002007B0BDE8F0834FF4057070474FF08C
:1007D00000534CF23C325A8070474FF000534AF6B7
:1007E000C0325A8070474FF000534FF20F025A80C8
:1007F00070474FF000534AF6C0305B8823F00F0378
:100800009BB21B1A5842584170474FF0005208B52E
:100810001080FFF7EEFF10B94FF20F03538008BDB1
:1008200008B5FFF7E6FF20B14FF00053588800F0FD
:100830000F0008BD08B5FFF7DCFF50B14FF00052C4
:10084000538803F00F010F2914BF013323F00F0366
:10085000538008BD08B5FFF7D8FFBFF34F8F054998
:10086000054BCA6802F4E0621343CB60BFF34F8FBD
:1008700000BFFDE700ED00E00400FA054FF0005373
:100880004FF20F015A888A4201D1188870473AB94D
:100890001B8840F20220012B18BF4FF400707047F4
:1008A0004FF40070704700004FF4003208B5044B5D
:1008B0009A6601F0A5FDB0FA80F0400908BD00BFBE
:1008C00000900040072BF8B506460F4614461D461B
:1008D00001D90020F8BD0121202001F0EBFC01210D
:1008E000212001F0E7FC8CB144EA06039B07F0D11C
:1008F0004FF40032064B31469A66284623463A4664
:1009000001F0A8FDB0FA80F04009E3E70120E1E73B
:100910000090004010B5044600F0DCF8074BB0FB37
:10092000F3F304FB03F0022806D9BDE810400323CB
:10093000B0FBF3F001F08CBF10BD00BF40420F00D0
:100940004FF08062024B5A664FF400725A6670474D
:100950000090004038B5FFF7F3FF02210023042286
:10096000012001F0E1FC002302221946012001F0E0
:10097000DBFC012100230846042201F0D5FC0422FF
:100980000125194C11460123002001F0CDFC04F58E
:1009900080535D6040F6AA6363610023134A2361BC
:1009A000E36404F500539A6440F20143A36041F20A
:1009B0000503E36000F08EF80D4B0138B0FBF3F057
:1009C00010230002E0610B4A63610B4BC3F854260D
:1009D0004FF00112C3F84C56C3F850261C22C3F83E
:1009E0003C260523636138BD00000640FFFF01007F
:1009F0000050C3000100020000C0034008B50146DA
:100A0000FFF79EFFBDE80840014801F011BF00BF9D
:100A10000000064038B505460D4CC0F3074120469E
:100A2000FFF78EFF01F00EFF2046C5F3072101F00E
:100A300009FFE9B2204601F005FF204601F0F2FE71
:100A4000204601F0EFFE2046BDE8384001F0EABE46
:100A50000000064008B5FFF773FFBDE80840FF211E
:100A6000014801F0E5BE00BF0000064038B50B4D5F
:100A7000FF212846FFF764FF01F0E4FEFF2128462E
:100A800001F0E0FE284601F0CDFE000284B22846C7
:100A900001F0C8FE204380B238BD00BF0000064010
:100AA00008B5FFF74DFF1022014B1A6108BD00BFCA
:100AB00000E0034008B5FFF743FF1022014B1A6125
:100AC00008BD00BF00D00340002303604FF4800046
:100AD0007047000030B51C4B87B001AA03F1100528
:100AE000144618685968083303C4AB422246F7D14C
:100AF0001B782370154B1B6F03F00703032B1FD0CC
:100B00004FF48022124B5A66124A9368C3F304438F
:100B1000102B17D818336B4413F8143C0E480F49A8
:100B200043438B4203D19268C2F30162D340074A28
:100B3000106FC0F303300130B3FBF0F007B030BDED
:100B4000074BF4E7074BF2E7B035000000800040A8
:100B5000009000400000014040420F0000093D00AD
:100B600000F04902C0EA21010020704700207047D0
:100B700070B5D1E90152AA4205D290F840302B4419
:100B80009B1A402B10D9002012E00A6890F84040D0
:100B9000D65C90F841200133224402F03F02013438
:100BA00086548B6080F840408B689D42EDD80120D0
:100BB00070BD2DE9F8431D461746D1E901329B1A55
:100BC00090F84020044613449D420E469DF8209024
:100BD0009DF8248056D9FFF7CBFF00285CD1142361
:100BE00041F2020084F84630BDE8F88394F84120D1
:100BF000A25CFA5494F841200133013202F03F0222
:100C000084F8412094F84020013A84F8402094F878
:100C100040200AB19D42E9D1D6E90121914201D299
:100C20009D4231D89D42DAD129463846D4F88820F1
:100C300000F02EFDC4F88800B9F1000F04D02A4658
:100C40003946E06C00F006FEB8F1000F08D094F8C9
:100C500043308BB12B463A463946A06C00F05AFD22
:100C600094F8433043B1E36DA26D2B449342E365A6
:100C700024BF002384F84330636D41F203002B440A
:100C80006365B1E70023C2E73268525CFA54B26888
:100C900001330132B260BFE70020A5E77FB5002332
:100CA000CDE90033082315460DEB03020446FFF798
:100CB00080FF41F203039842064626D194F8433060
:100CC00063B10822E06C0DEB020100F0C3FD0823C4
:100CD0000DEB03021146A06C00F01CFD039A029B71
:100CE0006A6094F843202B605AB9094A934208D0AD
:100CF000084A934205D00822E06C0DEB020100F097
:100D0000A9FD6B68236500236365304604B070BDA0
:100D1000F70A0AF7FC0404FC2DE9F7430446586877
:100D20000E4617469846002842D011F0030342D1E0
:100D30009B6A206E1B6902EB000C1D1D65451CD8CB
:100D40001C33984219D28542294638BF01469C453A
:100D500094BFC1EB0C02C1EB0302081AC5F1680590
:100D600006EB0009681820444946019202F0A8FBEE
:100D7000FF214846019A02F0B0FB46F20403226EBE
:100D80009A420BD846F20701B818884206D99B1A36
:100D9000F258C4F880204FF0FF32F2503A46D8E9BA
:100DA0000035206E3146A8470020226E3A44226664
:100DB00003B0BDE8F08341F20200F9E72DE9F0410C
:100DC00000264FF0FF3804460F46154603F0200377
:100DD00080F842301822FF21C0E91866A0F8406070
:100DE00080F84360A0F8446080F84660C0F88880CE
:100DF000683002F072FB88223146C4E91275C4F8EB
:100E00008080C4F8848004F1900002F066FB40F218
:100E10000113A4F824310123C4E9476884F8186158
:100E200084F8263137B1284615B100F0FFFC304672
:100E3000BDE8F08141F20B00FAE700002DE9F04F28
:100E4000A7B0CDE913230293002304460E46309D3C
:100E5000DFF8C0931593159A029B9A4201D30020A4
:100E6000CDE094F84630142BF6D8DFE813F06C0090
:100E7000B4006600510038002D00560238004E02C2
:100E80003800080238004E029D030B041500920141
:100E900044034403D6020B044FF00008636D0F2B8C
:100EA0004FD80127102316AA2046CDF804800097BA
:100EB00013A9FFF77EFE41F203030990099A9A42B3
:100EC00000F05981099B4AE00127D4E9143293428A
:100ED00000F2658184F8467041F203033FE04FF071
:100EE0000108D4E91437BB422BD9DB1BDDE91472AE
:100EF000BF1A94F84020032B174440F21282032FAC
:100F000000F21282204613A9FFF732FE002326E0EA
:100F10000127636D072BDFD8082316AA2046CDE9E9
:100F2000007713A9FFF745FE41F203030C900C9ADA
:100F30009A4200F0B9810C9B11E00027636D072BEA
:100F40001CD90123E6E116AA204613A9FFF7A6FE45
:100F500041F203020690069B934202D0069B059342
:100F600046E0179A16992265002262659E4A9142D0
:100F700040F0A581022284F84620F0E7012316AA5A
:100F8000009320460823019713A9FFF712FE41F2B0
:100F900003030790079A9A4201D0079BDFE7169B4D
:100FA00003F07F43B3F1407F05D0142384F846302B
:100FB00041F20903D3E7179BD80706D594F84230CE
:100FC00043F0010384F84230B8E7142384F8463034
:100FD00041F20A03C3E7204616AA13A9FFF75EFEF3
:100FE00041F203030890089F9F420BD0089F05978A
:100FF00041F20303059A9A423FF42DAF059827B0BA
:10100000BDE8F08F94F84420169B2AB1774A9342AA
:1010100040F087800D2336E094F84220D10741D577
:1010200094F84320002A3DD171498B4233D022D815
:10103000704A934275D014D86F4A934200F088806A
:1010400004D8694A93426CD04B456AD0142316A841
:1010500084F84630FFF788FD002865D141F2080783
:10106000C5E7664A934279D0F0D8654A934258D092
:10107000644A9342E9E75D4A9342CBD006D8624A7C
:101080009342E3D10F2384F84630B0E75F4A93429E
:1010900047D05F4AEDE7102384F84630236DC4E95A
:1010A0001632A4E7574A93424AD02BD8514A93426A
:1010B00044D022D84B453FD04F4A934244D016A843
:1010C000FFF752FD00284BD01323169884F84630C2
:1010D000C4F88C00FFF74AFD94F842309A0686D592
:1010E000002884D04368002B81D020469847089080
:1010F000089B002B3FF47BAF16E0414A9342DED1C0
:101100000323C0E7414A93421CD010D83B4A934284
:1011100020D0364A9342D2D194F84330002B3FF48A
:1011200079AF142384F8463041F201075FE7384A6B
:101130009342C4D10823A6E70A23A4E70523A2E724
:101140000623A0E70C239EE794F84330002BE8D158
:10115000112398E794F84330002BE2D1122392E751
:10116000142384F8463094F84330002B3FF476AFD4
:1011700041F204073BE7D4F848A000F079FB802354
:101180000221CDE9000317AA3B46504600F098FA29
:1011900084E6012384F8433084F846305BE616AADF
:1011A0002046CDE9007713A9FFF703FD41F20303C1
:1011B0000A900A9A9A4201D00A9BD0E60DF1580C87
:1011C00006F108030DF1700E624603CA72451860FD
:1011D0005960944603F10803F6D11068186033781B
:1011E00043F00103337070E6EB17A603FC0404FC24
:1011F000F90707F9F40A0AF4F30B0BF3F70A0AF7F5
:10120000F50909F5F60808F6FA0606FAFD0303FDE6
:10121000FE0101FEEB17A65E337843F00403337042
:10122000199BB36273785B0726D5EB238DF8583092
:1012300017238DF85930A6238DF85A305E230020ED
:101240008DF85B30236D6066C4F8843094F84530C7
:1012500043F0020384F84530EF686FB104222B6835
:1012600016A9B8470822606E2B68EF6818A91044C9
:10127000B847636E103363660B2384F84630636DA2
:10128000072B3FF629AE012318AACDE900332046EB
:10129000082313A9FFF78DFC41F203030B900B9A6F
:1012A0009A42B9D00B9B5AE63378179A43F002035F
:1012B0003370169B7360236D083B73622AB114234D
:1012C00084F8463041F2010349E6042384F84630AD
:1012D00094F84530626643F0010384F8453018E61F
:1012E000042316AA2046CDE9007713A9FFF761FC75
:1012F00041F203030D900D9A9A4201D00D9B2EE608
:10130000236D042B02D9169B23660127636D032BE3
:10131000E6D9092384F84630DEE500236366072317
:101320003AE79F42FFF4EEAD402B28BF40239F4297
:1013300028BF1F46032F88BF27F003073B4616AA86
:101340002046CDE9008813A9FFF733FC41F20303DF
:101350000E900E9A9A4201D00E9B00E694F846B089
:10136000BBF1070F04D1D5F808A0BAF1000F1BD1CB
:10137000042FC7F1040A88BF4FF0000A16AB52468B
:10138000FF21D81902F0A9F8BBF1090FBA4414D112
:101390002B465246204616A9FFF7BEFC0E900E9B28
:1013A000002B3FF49EADD7E73A462B68606E16A936
:1013B000D047626E3A44626693E5BBF1040F20D1D8
:1013C00073789F077FF58DADEB68002B3FF489ADF7
:1013D000626E042A0BD80AEB0203062B07D917AB5F
:1013E0009B1A1A68C4F884204FF0FF321A60EF6825
:1013F00052462B68606E16A9B847676E57446766F9
:101400006FE5BBF10B0F7FF46CAD737858077FF578
:1014100068ADEF68002FEBD163E594F8427017F0E8
:10142000200707D0D4F88C00FFF7A0FB0746002860
:101430003FF448AF4FF0010A42E04BB347B33B697A
:1014400033B320469847DDE9143294F840809B1A64
:1014500043448342FFF456ADD4E91421A2EB0108C2
:10146000B8F1400F28BF4FF04008984528BF984674
:1014700016AA43462046CDE900AA13A9FFF799FB17
:1014800041F203030F900F9A9A4203D00F9B66E537
:101490000120D8E794F84230990611D5002F3FF487
:1014A00011AFD7F808B0BBF1000F3FF40BAF2B46DC
:1014B0004246204616A9D8470F900F9B002BE5D136
:1014C000D4E9142194F84230914203F02003B4D3BC
:1014D000002B3FF436AD002F3FF433ADFB68002BFB
:1014E0003FF42FAD2946204698470F900F9B002BC5
:1014F0003FF427ADCAE700218A6A496B1269503A66
:1015000091423FF6DFAE112B0FD194F81831002B2A
:101510007FF417AD41F206031093109A9A4202D15C
:10152000142384F84630109B19E594F84430002BBE
:101530007FF407ADCDE9003316AA4023204613A956
:10154000FFF737FB41F203031090109A9A42EAD159
:10155000E06C00F081F994F81831A3B104F1B40300
:10156000E06C00931EAA04F1940316A900F0E4F8BD
:101570001090109B9BB10023F370142384F8463025
:1015800041F20603EBE4E76C00F06AF9039000F027
:101590006BF9039B00901EAA384616A9E6E70123C3
:1015A000F37084F84430CCE4002316AACDE900336C
:1015B0002046042313A9FFF7FCFA41F2030311901C
:1015C000119A9A4202D0119B059317E5D4F888200E
:1015D0002E4B9A4205D0142384F8463041F205037D
:1015E000F2E70123F37094F84530DA0707D5EF6886
:1015F0002FB104222B68104604F18401B84794F8F7
:1016000045309B0707D5EF682FB104222B681046A1
:1016100004F18401B847236E6BB36F685FB34FF07A
:10162000FF3304F18001042212A81293029101F009
:1016300037FF28B1042246F204002B680299B8470C
:1016400004F168090422494612A801F029FF90B16B
:1016500000239B6A1422D3F8108004F16C0108F176
:101660000800D5E90037B847D5E9003704224946D4
:1016700008EB0200B8470123B3700E2384F846300C
:101680000023A1E741F20700B9E400BFE320BBDE7D
:1016900030B50824094B00255C66012403F5FE23C0
:1016A0005C6001449D601A61DC60884201D1586A27
:1016B00030BD10F8012B1A62F7E700BF0090004020
:1016C000F8B516464FF400521D46114B04469A6673
:1016D0000222C3F860220F4601F0ECFDDDE906129C
:1016E000204601F0EBFD002384F838706362336814
:1016F000C4F839307368C4F83D30B368C4F8413079
:101700002B0C6DBA84F84530A4F84650F8BD00BFE4
:101710000090004030B50D4685B0194600F1280311
:10172000CDE90152009300F1240200F1380301F0E9
:1017300011FE05B030BD00002DE9F041B0B01446F7
:101740000646369D00286AD0002968D0002A66D057
:10175000002B64D0002D62D006224FF40050069278
:10176000304A20AF90660320C2F860020022BE46D5
:1017700009920C920F920A4601F12008F446106873
:1017800051680832ACE803004245E646F6D12246ED
:101790000DF1A00C04F1200E644610685168083267
:1017A00003C47245A446F7D10DF1400C1A466446B5
:1017B00003F1200E234610685168083203C37245B6
:1017C0001C46F7D12B4618AC2035224618685968BC
:1017D000083303C2AB421446F7D14023CDE90A7364
:1017E000089320230AAA0E9303AB07CACDF81CC0A6
:1017F0000D9683E8070007AB93E807008DE8070024
:101800000DAB0ECB084801F07FFB0690069B40F223
:101810000460002B08BF002030B0BDE8F08140F22A
:101820000160F9E700900040EC3700004FF40052EF
:10183000074B10B59A6602220446C3F8602200F0F6
:10184000CFF82046BDE81040002100F0CDB800BF21
:101850000090004000F0CDB8014600F0D7B800007D
:10186000004870474CE30700004870476CE30700EE
:101870000048704786E207002DE9F34799460A9B26
:101880000C46196805463F29164642D85A68002A70
:1018900041D0224A002E14BFB046904601F03F07C7
:1018A000091928BF5A68196024BF01325A60AFB1C4
:1018B000C7F1400AA24521D82946524609EB070044
:1018C00001F0FEFD0123414600934A4633460020C5
:1018D00000F0A3F8B046403C55443C443F2C0CD9A2
:1018E000A3092A46009341463346002000F095F8AC
:1018F00024F03F031D4404F03F0400272CB122468E
:10190000294609EB070001F0DBFD002002B0BDE82D
:10191000F0879046C2E7DFF80480BFE7C1350000DA
:1019200030B40546084611461A46DDE9023425B9A9
:1019300031B1029430BCFFF79FBF024830BC704702
:101940000846FBE780AFFFFF2DE9F041174614681A
:1019500086B01E46E3008DF80F30630952688DF89B
:101960000E30630B8DF80D30630D8DF80C30D30005
:1019700003EB54738DF80B3004F03F045309372CFC
:101980008DF80A304FEA52334FEA525205468DF82D
:101990000820884694BFC4F13802C4F17802CDE92A
:1019A00000178DF809300D4903460020FFF7B8FFF6
:1019B000082143462A4600970DEB0100FFF75CFF24
:1019C000284605F1200350F8042B984246F8042BD2
:1019D000F9D1002006B0BDE8F08100BFE13500007C
:1019E0006822002101F079BD0023C0E900331846C8
:1019F000704707B500F128030190009300F1080338
:101A00000020FFF78DFF03B05DF804FB02460B4694
:101A100000F128010830FFF797BFF0B51D4693B0DD
:101A2000002837D1189B06909B01CDE904230AAB0F
:101A30000A461E4601F120071C461068516808320C
:101A400003C4BA422346F7D100230796099301F055
:101A50000FFD0446D8B92023089304AB93E8070090
:101A60008DE8070007AB04200ECB01F0BBFB074657
:101A700001F00AFD8FB92B46324612AE154603CD52
:101A8000B542186059602A4603F10803F6D1204692
:101A900013B0F0BD6FF07104F9E76FF06F04F6E773
:101AA00010B500244A1EA1424FEA82024FF0FF0106
:101AB00008BF224640F8044B01F00FFD204610BD40
:101AC000036840F204500133022B38BF00207047F6
:101AD00040F20250704710B5012304220621022073
:101AE00000F022FCBDE81040012304220721002061
:101AF00000F01ABC002306211A46022010B500F09F
:101B000013FCBDE81040002307211A46184600F0D8
:101B10000BBC000010B5ADF50E7D4FF40572002032
:101B200009A900F07BF940F20124002109A800F086
:101B3000ACF8A042F9D040F20323984227D19DF897
:101B4000243059070CD49DF824309A0730D4DB0791
:101B50001DD50C998A9800F0D3F9C0B1002018E087
:101B60001398FEF7C2FC0028EDD000F0EFFD194BF2
:101B70000446984210D11C22002102A801F0ADFCBD
:101B800001A8019400F000FEB0F5403F04D140F2FE
:101B900005400DF50E7D10BD8A9800F06FF9002804
:101BA000D1D04FF4C040FEF77FFC0028CBD1EEE748
:101BB0000022926A0A9992689142C8D98A9800F0E4
:101BC0007BF90028E3D012994FF4C040FEF744FCA3
:101BD000DDE700BF00000343FFF79CBF31B10A4BB4
:101BE0005A68824205D80023C1E9003340F201401F
:101BF0007047013053F8302003EBC00043680A609F
:101C000000204B60704700BFC436000001221A70EC
:101C10007047000070B40C4611460C4A5568854266
:101C20000DD9013002EBC0067668E518B5420AD836
:101C300052F830001A46204470BC00F047BA40F217
:101C4000014070BC704740F20240FAE7C436000021
:101C500030B504460D46A3B0D0F80C1202AA80237A
:101C6000D0F80402FFF7D6FF80232146009502AA90
:101C700004F12C00FFF7E2F8D4F80C32C4F810029B
:101C80008033C4F80C3223B030BD1FB50023CDE93A
:101C90000033CDE90213D0F81032044693B9D0E9ED
:101CA00082329A420ED26946FFF7D2FFD4F8100270
:101CB00098B141F2070240F20123904208BF184652
:101CC00004B010BDA3785BB140F2022040F20323C0
:101CD000E278002A18BF1846F2E740F20120EFE749
:101CE00040F20220ECE7000070B50D46002186B0FE
:101CF0000DF1070302931F4B044616461160284658
:101D00001C22CDE903338DF80710059301F0E5FBA4
:101D100094F87230132B28D0D4F810322BBBD4E9AE
:101D20008221914207D2204602A9FFF791FF9DF838
:101D30000730002BECD02278910744BF61683160F6
:101D4000D20709D504F1080204F1240152F8040B6A
:101D50008A4245F8040BF9D14BB9237840F206408A
:101D6000002B18BF002006B070BD0023E3E7002061
:101D7000F9E700BF0D1C000070B40C4611460C4A78
:101D8000556885420DD9013002EBC0067668E5182A
:101D9000B5420AD852F830001A46204470BC00F010
:101DA000B7B940F2014070BC704740F20240FAE718
:101DB000C4360000074B5A68824207D9013003EB52
:101DC000C002516853F8300000F0FCB940F2014005
:101DD000704700BFC436000070B5054688B0C0B17A
:101DE0004FF4403200236C46C0E900230A4B05F152
:101DF00014061A785B680272C360684600F002F944
:101E00000FCC0FC694E80F0086E80F0005F114030D
:101E10002B6108B070BD00BFC436000037B50C465A
:101E2000054611462046FEF75FFC48B9694628463C
:101E3000FFF7D4FE20B9019BC4F80452C4F808325D
:101E400003B030BD38B500F5CE7204460D462023F0
:101E500000F5AA712C30FEF7B1FFD4F810321BB98F
:101E6000D4E982329A4203D3A07800B1E07838BD39
:101E700029462046FFF7ECFEEFE7000000B5ADF580
:101E80000B7D4FF4057205A9FFF7C8FF78B904234D
:101E90008DF81530074BCDE90100039001A905A885
:101EA0000493FFF7CFFF0DF50B7D5DF804FB0020D9
:101EB000F9E700BF81020000002300B59B6AADF581
:101EC0000B7D9B688B4204D300200DF50B7D5DF8E4
:101ED00004FB4FF4057205A9FFF7A0FF0028F3D11A
:101EE00002238DF81530054BCDE90100039001A9BF
:101EF00005A80493FFF7A6FFE7E700BF81020000F3
:101F000000B5ADF50B7D4FF4057205A9FFF786FF0F
:101F100078B901238DF81530074B0190CDE90230D7
:101F2000049001A905A8FFF78DFF0DF50B7D5DF865
:101F300004FB0020F9E700BF6102000038B5FEF79E
:101F4000AFFD9F20FEF75AFDFEF784FD0546FEF724
:101F50008DFD0446FEF7AEFDEF2D06D144F21400D0
:101F600084420CBF0320002038BD0020FCE708B5E8
:101F7000FEF796FD0620FEF741FDBDE80840FEF79E
:101F800099BD08B5FEF7E6FCFFF7A5FD42F210701B
:101F9000FEF7C0FCFEF784FDAB20FEF72FFDFEF739
:101FA00089FD47F23050FEF7B5FCFFF7C7FF88B157
:101FB0000C38C0B201280BD8FFF7D9FFFEF770FD2F
:101FC0000120FEF71BFD0020FEF718FDFEF772FD55
:101FD000002001E040F2011008BD10B5FEF760FDE1
:101FE0000520FEF70BFDFEF735FD0446FEF762FD0A
:101FF00004F0010010BD08B5FFF7EFFF0028FBD18A
:1020000008BD000070B588B00646FFF7F4FF202237
:102010000021684601F061FAFFF790FF03280AD11A
:102020003446094D0FCD0FC495E80F0084E80F002A
:10203000304608B070BD35466C460FCC0FC594E8ED
:102040000F0085E80F00F3E7D436000010B5044612
:10205000FFF7D1FF54B9FFF771FF0138C0B216285E
:1020600096BF064B002053F8200010BD20780028B2
:10207000F3D1FFF763FF2070EFE700BF6836000081
:1020800038B5054610460C46FFF7E0FFA04207D3DF
:10209000A84205D32C4484428CBF0020012038BDC7
:1020A0000020FCE713B50C460190FFF7A4FFFFF7F3
:1020B0005EFFFEF7F5FC0198FEF7A0FC2046FEF758
:1020C000A9FC02B0BDE81040FEF7F4BC70B51446A0
:1020D0000D46002221460646FFF7D2FFA8B1FFF7C2
:1020E0008AFFFEF7DDFC0320FEF788FC3046FEF792
:1020F00091FC2C44A54203D1FEF7DCFC002070BD0E
:10210000FEF7A8FC05F8010BF4E740F20240F6E701
:102110002DE9F04114460F46002221460646FFF7FE
:10212000AFFF002846D0FFF766FFFEF7B9FC03209B
:10213000FEF764FC3046FEF76DFC25468DB9FEF7D0
:10214000B9FCF3B253B326F0FF0505F580753319DA
:10215000AB4232BF2546AD1BADB25CB92046BDE8EF
:10216000F081FEF777FCFF2805F1FF35E6D040F25D
:102170000340F4E7FFF73FFFFFF7F9FEFEF790FC9F
:102180000220FEF73BFC3046FEF744FC07EB050857
:10219000B8450AD1FEF78EFC641B2E44B4F5807F4F
:1021A000254628BF4FF48075D7E717F8010BFEF7D7
:1021B00025FCEDE740F20240D1E74FF0FF307047D9
:1021C000FEF782BC00232DE9F34105460DF107001F
:1021D0008DF807300C46FFF739FF9DF807300646AB
:1021E000A3F10F02032A2CD9133BDBB2012B47F6D4
:1021F000FF734FF6FF778EBF4FF480381F464FF4C2
:10220000004840F6FF7344EA05021A423DD12146D8
:1022100028460DF10702FFF733FFC8B30DB9A642F8
:1022200015D025442E1BECB137421FD1444524D292
:102230002644311BB4B12020FFF734FFA4F58054AD
:10224000F7E74FF6FF774FF480383B46DBE7FFF7C1
:10225000D2FEFFF78CFEFEF723FCC720FEF7CEFB75
:10226000FEF728FC002002B0BDE8F08131462020B6
:10227000FFF718FFA4F58054D4E73146D820FFF7C4
:1022800011FF4644A4EB0804D0E740F20440EAE71B
:1022900040F20240E7E708B5FFF7ADFEFEF700FCAD
:1022A000B920FEF7ABFBFEF705FCFFF723FC00208F
:1022B00008BD0000420910B510D0012A10D00B4B08
:1022C0000B4C022A18BF234600F01F0051B103F542
:1022D0008053012202FA00F0186010BD1346F3E7A4
:1022E000044BF1E703F50053F3E700BF68800040BB
:1022F0006082004064800040EFF3108072B6704747
:1023000000B962B6704770B5054614460E46FFF731
:10231000F3FF296881EA040202EA06044C402C60BB
:10232000BDE87040FFF7ECBFF8B504460D461F4608
:1023300016464AB101238B403021194A01FB002285
:10234000FFB141F21001535004EB4403072D4FF04D
:102350000F014FEA031317D8A80006FA00F28140D4
:1023600010481844FFF7CFFF56B9012130230C481D
:1023700001FA05F503FB040077B141F21003C550E3
:10238000F8BD42F21001DEE7A5F10800800006FA70
:1023900000F281400448E4E742F21003EFE700BF97
:1023A00000C0034004C003400CC00340F0B5114A14
:1023B000114C124E00F00105E3695F0713D40DB90B
:1023C000334213D103EA00078F4207D10B4A1A4068
:1023D000002A14BF6FF001000020F0BD013AEBD1DC
:1023E0006FF00200F9E74FF0FF30F6E76FF0010001
:1023F000F3E700BF80969800000003400200010050
:102400004FF4003238B50F4B0F4C9A6641F67133DA
:102410000122E569E3630D4B0021DA60022360616C
:102420002120236105F48035FFF7C0FF10B921207A
:10243000FFF7BCFF0122064BDA600DB10023E36316
:1024400038BD00BF00900040000003400010034072
:10245000002003402DE9F04F06464FF440250120AF
:102460002C4CDFF8BCC04FF40037CCF8040044F823
:10247000265030250024DFF8ACE0DFF8AC9005FBF7
:1024800006E5EC652C662C67234CDFF8A0A0A76658
:1024900041F6713704F51C34D4F81C80E763E76813
:1024A00000FA06F60743E7604BB9E26818F4803F8C
:1024B00022F00102E26000D0E363184628E001F553
:1024C000005000EA0900401A984228BF184661618E
:1024D000D4F81CB087081BF0040F17D1013F3F014F
:1024E00047F060576F66AA66C5F86CA0CCF8246008
:1024F000DEF834703E42FBD0084F01447E6304276F
:10250000CCF82860024427611B1ACDE74FF0FF305A
:10251000BDE8F08F004004400090004000200440DF
:10252000001004400000044000E0FFFF18000340DA
:10253000C369032B9FBF00EB83020133D160C361EA
:10254000704700002DE9F843C3690446042B6FD897
:10255000FFF7D2FE4FF48032364B3749586E03F501
:1025600080535A66354D364BC003C1F80036C1F86A
:1025700004565CBFA1F5E4214A66324AE6691A6056
:102580002268314D5A6004F10C03C4F1204203EB80
:10259000860102F598428B4202EB030020D13046BF
:1025A0000027636803BB39460446254A41EA0661B1
:1025B00091601368516892684B4053400022A242D8
:1025C00031D145F82230BFF34F8F2049204BCA68E4
:1025D00002F4E0621343CB60BFF34F8F00BFFDE70F
:1025E00053F8047B0760D6E70022D3F8009005EB90
:1025F000800ED3F808C0F046CCF3990C624502EB8C
:10260000070102EB00040EF1040E06D35A68012AFA
:10261000CBD00F4620465B68C4E759F82210013240
:10262000C8F80010E5E755F8221001324B40C6E724
:10263000BDE8F8830080004000C00740004E00A0C5
:10264000004C00A0DEC0ECE50C4C00A000ED00E06A
:102650000400FA054FF48031174B10B5586E03F59E
:102660008053596603F5E623D3F8043603F1C042DC
:10267000A2F58042B2F5606F01D9002010BDC203FF
:102680005CBF0E4A516619680D4A9142F5D11A692C
:102690000532B2F5007FF0D200210C46914205D3FD
:1026A00053F82200031B58425841E7E753F8210032
:1026B00001314440F2E700BF0080004000A000402C
:1026C000DEC0ECE538B50F4B0F495A6E4FF480333E
:1026D000D20358BF0D4A4B6601F5E621D1F80456E6
:1026E000044658BF536630B1FFF7B4FF30B1002045
:1026F0006B68236038BD4FF4E020FBE74FF47E00A9
:10270000F8E700BF008000400090004000A00040BB
:102710000B4B0C495A6E4FF48033D20358BF0A4A10
:1027200010B54B6601F5E621D1F8044658BF536653
:10273000FFF790FF10B1A068C0F3C05010BD00BFFC
:10274000008000400090004000A000400B4B0C496E
:102750005A6E4FF48033D20358BF0A4A10B54B6605
:1027600001F5E621D1F8044658BF5366FFF7D0FFC4
:1027700008B1E06810BD4FF47E00FBE70080004028
:102780000090004000A00040F8B5234B23495A6E4A
:102790004FF48033D2034B6658BF214A01F5E6213E
:1027A000D1F8045658BF5366846805F11406FFF744
:1027B000AFFF48B32A6956F82230DB4346F822308F
:1027C000A86810F470201DD0A86800F47020F8BD2F
:1027D0000021D4F800C0A668C6F39906B1420DD016
:1027E000934203D19CB19342F2D3F0E7013305EB5E
:1027F00083073F694CF821700131EFE7646824F0EA
:102800000104EFE70346EDE74FF47E00DFE7934274
:1028100038BF4FF4E020DAE700800040009000402D
:1028200000A0004083691B06FCD5406AC0B2704717
:1028300083695A06FCD5C16383699B06FCD5406A4F
:10284000C0B2704783695B06FCD5C1637047000066
:10285000013800D0FCE7704713B51AB1002400948A
:1028600000F04CF902B010BD60B5054619B1013950
:10287000B1F5806F10D2094EF06810F48030FBD1B2
:1028800043EA0121120741EA050302F08052134393
:1028900043F00043736060BD0120FCE70020024C60
:1028A000F0B58DB005AC84E807001C46A1420D468A
:1028B00028BF2546129B0DB304B3114628460026B7
:1028C00003F51813CDE90A468DE8030003F241131E
:1028D0005F02C5EB4323099302950CAA059B12E9FD
:1028E0000700069500F098FCA54207D23146621B0E
:1028F000381B0DB0BDE8F04000F08CBC0DB0F0BD51
:1029000030B591B001AC84E807001C461346DA00EC
:1029100049BF029A6200033222F00302014604A872
:10292000FFF79AFF04A800F0FFF81499224601F57A
:10293000181101F241114D0208A8C4EB41210023F6
:10294000FFF78AFF05F5007100232246091B0CA83A
:10295000FFF782FF0CA800F0E7F808A904A800F030
:10296000BDF811B030BD10B58CB005AC84E80700DF
:102970000E9ADDE9060102F5181202F5A072520264
:10298000CDE9092300228DE803000B9202930CAAE3
:10299000059B12E9070000F03FFC0CB010BD0000E1
:1029A0000122054B9A60DA68D203FCD4D86820F083
:1029B0000F000004000C70470020024C2DE9F04B82
:1029C0004FF0000899460746164645468AB003ACC4
:1029D00084E8070002F0805B07AC049A424502D805
:1029E0000AB0BDE8F08B139B13B9AA1E012A0AD9BD
:1029F000129BCDE90779099600955BB194E8070031
:102A00004B46FFF74DFFBBF1000F00D14F4401359E
:102A1000C844E2E74B4694E80700FFF7A4FFF2E75B
:102A200082B01FB507930A9B04AC8B4228BF0B46AC
:102A300004E907001048D100079948BF033301603B
:102A4000099948BF23F0030323F0704301F0E041EC
:102A5000194341F000518160002102F0E042019CE5
:102A6000134343F00053C16004618361416304B0C8
:102A7000BDE8104002B070470000024C3F22034BFB
:102A80001A631022DA6103229A6370470000024C35
:102A9000024AD36B9B07FCD4704700BF0000024C76
:102AA000034B986A10F0240018BF0420704700BF41
:102AB0000000024C08B5FFF7F3FF064BDB6B23F475
:102AC0007F4323F0EF0303431EBF0122024BC3F8F1
:102AD000FC2F08BD0000024C00F0FF3F032208B5A8
:102AE000054B186019615A63FFF7C8FFFFF7D0FF65
:102AF000BDE80840FFF7DEBF0000024C10B522F031
:102B0000704200F11004C0E90014826041B1826893
:102B100003F0704313438360029BC360204610BDE3
:102B2000836843F08043F6E701234360C36843F0C2
:102B30002003C360836843F0005383607047C36819
:102B400003F00F03012B02D0033B012B08D8C3680D
:102B500001F01F0143EA0123C360836819448160C7
:102B60007047000042680346182A10B50AD0202A90
:102B70001DD0102A2BD1174AD2F80424D4010AD42C
:102B8000012013E0134AD2F804249001F8D50A6812
:102B900042F008020A6010481A6882424FF00000B2
:102BA0000ED10A6842F040020A60586010BD094A1E
:102BB000D2F804245201E3D50A6842F00402E9E79E
:102BC000064CA242F2D10A6842F08002ECE70720EC
:102BD000ECE700BF0000024C2C1000202D1000205C
:102BE0000B4607B50749D1F80414C90708D50021D9
:102BF00000920246084600F01FF903B05DF804FB9E
:102C00000120FAE70000024C0B4607B50749D1F84E
:102C10000414C90708D5009201210246002000F0E3
:102C20000BF903B05DF804FB0120FAE70000024C49
:102C30001FB50A4CD4F8044464070CD5CDE9001242
:102C40000021069C0222CDE902340346084600F02A
:102C50001DF904B010BD0120FBE700BF0000024CCD
:102C600037B54D68044645B18C680093096842EA5F
:102C700004032A46FFF742FF0446204603B030BD56
:102C80002DE9F04F2DED028BD1B0019008EE903A76
:102C9000DDE95D59DDE95F870420002301AECDE960
:102CA000030305AB08EE102A07C983E80700314685
:102CB00018460296619CFFF755FF0646002840F033
:102CC000B5805C9A08AB07CA83E80700D8F80420EF
:102CD000D9F80430494213445B4203F00F0B7B6880
:102CE00001F00F0A5B420093AB68DA0041BF6B68EA
:102CF000033323F003036B60A368DB0041BF636809
:102D0000033323F0030363600023D9F80400D8F8E9
:102D10000420CDE9133381185944CDE90C136968B7
:102D20000B93494201F00F01CDE90E316168109318
:102D3000494201F00F01CDE91131CDE91533179367
:102D40005C9B5B684BB97B681343034305D110213F
:102D50008A46CDE9091314AA089211234FF00052B4
:102D600002A930A8FFF77CFF40F611034FF0005294
:102D700005A9FFF775FF42F611034FF0005218EE58
:102D8000901AFFF76DFF44F611034FF0005218EE52
:102D9000101AFFF765FF412300224946FFF760FF45
:102DA0004FEA0B234FF00052414643F04103FFF737
:102DB00057FF4FEA0A234FF0005243F0010308A9DE
:102DC000FFF74EFF009B4FF000521B0203F47063AD
:102DD000394643F00103FFF743FF1038FFF7A4FE25
:102DE00000230BA91A4618A8FFF73AFF002329462B
:102DF0001A46FFF735FF00230EA91A46FFF730FFEA
:102E0000002321461A46FFF72BFF002311A91A467B
:102E1000FFF726FF002362991A46FFF721FF1038BB
:102E2000FFF782FE18A930A8FFF758FE304651B0D0
:102E3000BDEC028BBDE8F08FF0B51C465B68154613
:102E40008DB01A07129E1AD1CBB17268934216D177
:102E50000C4B0D4A53F8217009AB07CA83E80700F1
:102E60001A462946CDE90533CDE90333CDE901639F
:102E7000009447F48070FFF703FF0DB0F0BD07200A
:102E8000FBE700BF24370000F43600002DE9F041D5
:102E90008CB0DDE9127C7C681E46DDE9143E20071B
:102EA00028D13CB3DCF80400844223D158681028B0
:102EB00020D1DEF8040010281CD10F4809AC50F8CE
:102EC00021500E4951F822800D4A07CA84E80700B4
:102ED00045EA080022463146CDE9054ECDE90344D6
:102EE000CDE901C4009740F03000FFF7C9FE0CB0F7
:102EF000BDE8F0810720FAE7243700000037000022
:102F0000F43600000069704770B586B003AE054620
:102F100086E80E00FFF7F6FF202804463AD86A68D4
:102F200000EB80039A4203D0062343439A4233D1F5
:102F30000B9BB3EB440F2FD10E9A93422CD101225D
:102F400021463120EB68FFF78FFC08BB95E80700AE
:102F50000123CDE900332346FFF730FD08230AAAF9
:102F6000009307CA2346FFF7CBFC0C23009396E897
:102F700007002346FFF794FC0A230DAA009307CA13
:102F80002346FFF7BDFCFFF70BFD002818BF032009
:102F900006B070BD0120FBE70720F9E70138C0B299
:102FA00006289ABF014B185C0020704700380000CB
:102FB0000138C0B206289ABF014B185C0020704748
:102FC000073800000138C0B206289ABF014B185CD0
:102FD000002070470E3800002DE9F04FBBB080464E
:102FE00003A880E80E007E4B9DF81091D3F80024D2
:102FF000D40603D401203BB0BDE8F08F08F1FF32C6
:10300000059EDDE903A7062A00F2E780DFE802F06B
:10301000041A20262C323800D3F80C34D807E9D50E
:10302000012307930023B9F1010FCDE908332DD017
:10303000B9F1020F00F092804046FFF7C3FF63240E
:10304000054631E0D3F80C349907D3D50223E8E7DD
:10305000D3F80C345A07CDD50423E2E7D3F80C3467
:103060001B07C7D50823DCE7D3F80C34DD06C1D530
:103070001023D6E7D3F80C349C06BBD52023D0E729
:10308000D3F80C345806B5D54023CAE7544BD3F8CF
:103090000C34D903AED5079B404643F4C063079375
:1030A000FFF77CFF0324054613230422009307A99E
:1030B0004FF0005312A8FFF721FD5146009446F04F
:1030C00000533A46FFF71AFD4FF0000B04465E46E8
:1030D000DDF814A1469B9B4564D1B9F1030F0AD1D9
:1030E0004046FFF76FFF874277D14046FFF760FF0A
:1030F0000138304271D1002E67D103233246204679
:10310000009308A93346FFF7F9FC04260446A4F10E
:1031100010000290FFF708FD31460298FFF70FFDFF
:10312000489AAA4228BF2A461446002A53D00023B0
:10313000479900930AA8499BFFF7E0FC2A1B04D09B
:10314000002319460093FFF7D9FC1038FFF7ECFC79
:1031500012A80AA9FFF7C2FC00204CE7204BD3F8C5
:103160000C24D2037FF546AFD3F80C349B037FF5D4
:1031700041AF97B17C423946374604F00304079BC0
:10318000404643F4E0630793FFF708FF24023E46FE
:1031900005460F4644F0A30486E704210DF1200AFA
:1031A0000C46ECE7DAF8042016444AB103230093F6
:1031B0002046DAF80830DAF80010FFF79FFC0446E2
:1031C0000BF1010B0AF10C0A84E716F0030618BF95
:1031D000C6F104069BE70AA8B0E707200BE700BF8B
:1031E0000000024C70B58AB007AC84E80E0003AD55
:1031F000064694E8070085E80B00012302930EAB16
:10320000019303230093304694E80E00FFF7E4FE99
:103210000AB070BD00F061B982B02DE9F0418AB00A
:1032200005AE12F0804586E80700149C119333D157
:10323000139B8C4228BF0C4613F080538846129A89
:1032400002D1944228BF144634B30F2C13D9DDE9C0
:1032500012018DE803000294119B96E80700FFF726
:10326000DFFBFFF70BFCFFF713FC0AB0BDE8F041F2
:1032700002B0FFF71FBC059E119F93B1A8EB05029A
:10328000042A3B6828BF0422701909A90435099350
:1032900000F016F9AC42F1D80AB0BDE8F04102B036
:1032A00070472246394630460AB0BDE8F04102B0C8
:1032B00000F006B92422002100F00FB970B51546C0
:1032C0000E4624220021044600F007F925F04003B1
:1032D000802B02D0B5F5807F08D12046314640F8DA
:1032E000045BEA0800F0ECF8002070BD6FF01F00EE
:1032F000FBE730B504680D4624F0400180298BB00F
:1033000002D0B4F5807F22D10021CDE90312102232
:103310000430E408CDE90521CDE90732019002949B
:10332000099100F0A5F868B9012D07AA04A901A820
:103330000AD1FFF755FC044600F0A6F8204318BF59
:103340006FF06F000BB030BDFFF75EFCF3E76FF07E
:103350007100F7E72DE9F04F82460F469846164672
:1033600091B012B31568DAF8003023F04002802AD9
:1033700002D0B3F5807F73D1DB08002405931023BE
:10338000CDE908341B9BCDE906480AF104023B4411
:10339000049202930DF11C0BBC4208D3002E65D0A1
:1033A0000020356011B0BDE8F08F1546DBE75DB158
:1033B0001B9B1A9A1B5D525D013553401C9A05F008
:1033C0000F0513550134E7E7A7EB0409B9F10F0F17
:1033D0001ED91B9B29F00F092344CDE90A391C9BF8
:1033E0000C952344CDE90D390F9500F041F80028E4
:1033F000D8D15B460DAA0AA9CDF800B004A8FFF702
:1034000017FC039000F040F8039B03432BD14C447E
:103410001B9B03EB04091C9B1C44029B4B4501D1E5
:103420003C46B9E78DB94246012150461A9BFFF749
:1034300060FF0028B6D108F1100212F8013D0133F7
:10344000DBB213700BB99045F7D11A9A19F8013B0A
:10345000525D0135534004F8013B05F00F05DCE7F0
:103460006FF071009EE76FF06F009BE7304699E7C1
:103470004FF40052034B00209A660322C3F86022E7
:10348000704700BF009000404FF40052034B0020F3
:103490009A660322C3F86022704700BF00A0004074
:1034A0000139024410B5904201D1002005E00378B3
:1034B00011F8014FA34201D0181B10BD0130F2E7F3
:1034C0000A44431E914200D1704710B511F8014BD8
:1034D000914203F8014FF9D110BD024403469342D3
:1034E00000D1704703F8011BF9E70000F8B500BFF1
:1034F000F8BC08BC9E467047F8B500BFF8BC08BCD5
:103500009E467047B814B6F1E0CFF3ADB7DD25C9DC
:10351000FA79B7130000000007B0CD5E020000008A
:1035200002000102303800000060000000000800C6
:10353000F204010011050000150500004D03000014
:10354000E9060000190700002436000053070000B8
:10355000C907000000000000190500000B0500006D
:1035600013B779FAC925DDB7ADF3CFE0F1B614B8DA
:1035700001020000000000002C38000040000000A4
:103580000200010200000000000000000000000036
:10359000000000000000000000000000000000002B
:1035A000000000000000000000000000000000001B
:1035B0000400000700000D1013001A2026303840C8
:1035C000506A09E667BB67AE853C6EF372A54FF59E
:1035D0003A510E527F9B05688C1F83D9AB5BE0CDBF
:1035E0001980000000000000000000000000000042
:1035F00000000000000000000000000000000000CB
:1036000000000000000000000000000000000000BA
:1036100000000000000000000000000000000000AA
:103620000000000000010000D91D0000DD1B0000AB
:10363000151C0000791D0000B51D0000C11A000016
:10364000A11A0000D11A00001D1E00008B1C0000F2
:10365000E91C0000DB1F0000CD200000112100004C
:10366000C5210000BB210000000010000000040084
:10367000000010000000040000000800000010001E
:1036800000001000000020000000200000004000AA
:10369000000080000000080000001000000008008A
:1036A00000000400000008000000100000002000DE
:1036B0000080000000000100000002000000040083
:1036C00000000800000000000100000000000000F1
:1036D00000200600100203009A01000000180000FC
:1036E00000100000000010000000000001000000B9
:1036F000000010000000000000000000000000407A
:1037000000010000000200000004000000080000AA
:1037100000100000002000000040000000800000B9
:10372000000001000000000001000000FFFFFFFF9B
:103730000000000100000000000000000000000088
:10374000FFFFFFFFFFFFFFFFFFFFFFFFFFFFFFFF89
:1037500000000000FFFFFFFFFFFFFFFFBCE6FAAD28
:10376000A7179E84F3B9CAC2FC6325516B17D1F227
:10377000E12C4247F8BCE6E563A440F277037D8183
:103780002DEB33A0F4A13945D898C2964FE342E21D
:10379000FE1A7F9B8EE7EB4A7C0F9E162BCE33578B
:1037A0006B315ECECBB6406837BF51F5FFFFFFFFF0
:1037B0000000000100000000000000000000000008
:1037C000FFFFFFFFFFFFFFFFFFFFFFFC5AC635D8DB
:1037D000AA3A93E7B3EBBD55769886BC651D06B053
:1037E000CC53B0F63BCE3C3E27D2604B2C3700008A
:1037F000C0000000000000000000100020000000D9
:1038000010141C2030402040404040808040101464
:083810002020404020000000D0
:0C3818002438000008100020020000000E
:083824006501000041010000F4
:04000003000001D127
:00000001FF
